{
  "transactions": [
    {
      "hash": "0x7bdc49a3be60332ce8c8254951f2f5670a258f703454a0db684d61f60b110b74",
      "transactionType": "CALL",
      "contractName": "MomeNFT",
      "contractAddress": "0x7c1DC50D061b87D4E94Cb09999729E0b57E1Ce34",
      "function": "safeMint(address,string)",
      "arguments": [
        "0xE255e2404f50a2878C6587271698e81fd30e9D13",
        ""
      ],
      "transaction": {
        "type": "0x02",
        "from": "0x0903961f9aef3cedc5ceec5cf15e761c0cb38807",
        "to": "0x7c1dc50d061b87d4e94cb09999729e0b57e1ce34",
        "gas": "0x33840",
        "value": "0x0",
        "data": "0xd204c45e000000000000000000000000e255e2404f50a2878c6587271698e81fd30e9d1300000000000000000000000000000000000000000000000000000000000000400000000000000000000000000000000000000000000000000000000000000000",
        "nonce": "0x15",
        "accessList": []
      },
      "additionalContracts": [],
      "isFixedGasLimit": false
    },
    {
      "hash": "0xd64d9076201cf6ea47af287ca20c80dc9e093b5432cc65702361bbb73175035b",
      "transactionType": "CALL",
      "contractName": "MomeNFT",
      "contractAddress": "0x7c1DC50D061b87D4E94Cb09999729E0b57E1Ce34",
      "function": "safeMint(address,string)",
      "arguments": [
        "0xE255e2404f50a2878C6587271698e81fd30e9D13",
        ""
      ],
      "transaction": {
        "type": "0x02",
        "from": "0x0903961f9aef3cedc5ceec5cf15e761c0cb38807",
        "to": "0x7c1dc50d061b87d4e94cb09999729e0b57e1ce34",
        "gas": "0x3475b",
        "value": "0x0",
        "data": "0xd204c45e000000000000000000000000e255e2404f50a2878c6587271698e81fd30e9d1300000000000000000000000000000000000000000000000000000000000000400000000000000000000000000000000000000000000000000000000000000000",
        "nonce": "0x16",
        "accessList": []
      },
      "additionalContracts": [],
      "isFixedGasLimit": false
    },
    {
      "hash": "0x12488b634fcc7e9da85353582f847a350f8b94f46bc0014184d97f6969c3f95b",
      "transactionType": "CALL",
      "contractName": "MomeNFT",
      "contractAddress": "0x7c1DC50D061b87D4E94Cb09999729E0b57E1Ce34",
      "function": "safeMint(address,string)",
      "arguments": [
        "0xE255e2404f50a2878C6587271698e81fd30e9D13",
        ""
      ],
      "transaction": {
        "type": "0x02",
        "from": "0x0903961f9aef3cedc5ceec5cf15e761c0cb38807",
        "to": "0x7c1dc50d061b87d4e94cb09999729e0b57e1ce34",
        "gas": "0x3475b",
        "value": "0x0",
        "data": "0xd204c45e000000000000000000000000e255e2404f50a2878c6587271698e81fd30e9d1300000000000000000000000000000000000000000000000000000000000000400000000000000000000000000000000000000000000000000000000000000000",
        "nonce": "0x17",
        "accessList": []
      },
      "additionalContracts": [],
      "isFixedGasLimit": false
    }
  ],
  "receipts": [
    {
      "transactionHash": "0x7bdc49a3be60332ce8c8254951f2f5670a258f703454a0db684d61f60b110b74",
      "transactionIndex": "0x6",
      "blockHash": "0x2c66bbac20c14848279805f1819bc1b37f680e29832090b7a1c017fff8737552",
      "blockNumber": "0x8f50e4",
      "from": "0x0903961F9AeF3ceDC5CeeC5CF15E761C0cB38807",
      "to": "0x7c1DC50D061b87D4E94Cb09999729E0b57E1Ce34",
      "cumulativeGasUsed": "0x13bf94",
      "gasUsed": "0x254bf",
      "contractAddress": null,
      "logs": [
        {
          "address": "0x7c1DC50D061b87D4E94Cb09999729E0b57E1Ce34",
          "topics": [
            "0xddf252ad1be2c89b69c2b068fc378daa952ba7f163c4a11628f55a4df523b3ef",
            "0x0000000000000000000000000000000000000000000000000000000000000000",
            "0x000000000000000000000000e255e2404f50a2878c6587271698e81fd30e9d13",
            "0x0000000000000000000000000000000000000000000000000000000000000003"
          ],
          "data": "0x",
          "blockHash": "0x2c66bbac20c14848279805f1819bc1b37f680e29832090b7a1c017fff8737552",
          "blockNumber": "0x8f50e4",
          "transactionHash": "0x7bdc49a3be60332ce8c8254951f2f5670a258f703454a0db684d61f60b110b74",
          "transactionIndex": "0x6",
          "logIndex": "0x19",
          "removed": false
        },
        {
          "address": "0x7c1DC50D061b87D4E94Cb09999729E0b57E1Ce34",
          "topics": [
            "0xf8e1a15aba9398e019f0b49df1a4fde98ee17ae345cb5f6b5e2c27f5033e8ce7"
          ],
          "data": "0x0000000000000000000000000000000000000000000000000000000000000003",
          "blockHash": "0x2c66bbac20c14848279805f1819bc1b37f680e29832090b7a1c017fff8737552",
          "blockNumber": "0x8f50e4",
          "transactionHash": "0x7bdc49a3be60332ce8c8254951f2f5670a258f703454a0db684d61f60b110b74",
          "transactionIndex": "0x6",
          "logIndex": "0x1a",
          "removed": false
        }
      ],
      "status": "0x1",
      "logsBloom": "0x00000000000000000000000000000000000000000000000000000000000800000000000000000000000000000010000000000200020000000000000000000000000000000000000000000008000000000000000000000000000000000000000000000000020000000000000000000800000000000000000000000010000000000000000080000000004000020000000000000000000000000000000000000000000000000000000000000000000000002000000000800000000000000000408000000002000000000000000000000000000000000000000000000000000020000000000000000000200000000000000000000000000000000000000000000000",
      "type": "0x2",
      "effectiveGasPrice": "0xc678e99e"
    },
    {
      "transactionHash": "0xd64d9076201cf6ea47af287ca20c80dc9e093b5432cc65702361bbb73175035b",
      "transactionIndex": "0x7",
      "blockHash": "0x2c66bbac20c14848279805f1819bc1b37f680e29832090b7a1c017fff8737552",
      "blockNumber": "0x8f50e4",
      "from": "0x0903961F9AeF3ceDC5CeeC5CF15E761C0cB38807",
      "to": "0x7c1DC50D061b87D4E94Cb09999729E0b57E1Ce34",
      "cumulativeGasUsed": "0x161f43",
      "gasUsed": "0x25faf",
      "contractAddress": null,
      "logs": [
        {
          "address": "0x7c1DC50D061b87D4E94Cb09999729E0b57E1Ce34",
          "topics": [
            "0xddf252ad1be2c89b69c2b068fc378daa952ba7f163c4a11628f55a4df523b3ef",
            "0x0000000000000000000000000000000000000000000000000000000000000000",
            "0x000000000000000000000000e255e2404f50a2878c6587271698e81fd30e9d13",
            "0x0000000000000000000000000000000000000000000000000000000000000004"
          ],
          "data": "0x",
          "blockHash": "0x2c66bbac20c14848279805f1819bc1b37f680e29832090b7a1c017fff8737552",
          "blockNumber": "0x8f50e4",
          "transactionHash": "0xd64d9076201cf6ea47af287ca20c80dc9e093b5432cc65702361bbb73175035b",
          "transactionIndex": "0x7",
          "logIndex": "0x1b",
          "removed": false
        },
        {
          "address": "0x7c1DC50D061b87D4E94Cb09999729E0b57E1Ce34",
          "topics": [
            "0xf8e1a15aba9398e019f0b49df1a4fde98ee17ae345cb5f6b5e2c27f5033e8ce7"
          ],
          "data": "0x0000000000000000000000000000000000000000000000000000000000000004",
          "blockHash": "0x2c66bbac20c14848279805f1819bc1b37f680e29832090b7a1c017fff8737552",
          "blockNumber": "0x8f50e4",
          "transactionHash": "0xd64d9076201cf6ea47af287ca20c80dc9e093b5432cc65702361bbb73175035b",
          "transactionIndex": "0x7",
          "logIndex": "0x1c",
          "removed": false
        }
      ],
      "status": "0x1",
      "logsBloom": "0x00000000000000000000000000000000000000000000000000000000000800000000000000000000000000000010000000000200000000000000000000000000000000000000000000000008000000000000000000000000000000000000000008000000020000000000000000000800000000000000000000000010000000000000000080000000004000020000000000000000000000000000000000000000000000000000000000000000000000002000000000000000002000000000008000000002000000000000000000000000000000008000000000000000000020000000000000000000200000000000000000000000000000000000000000000000",
      "type": "0x2",
      "effectiveGasPrice": "0xc678e99e"
    },
    {
      "transactionHash": "0x12488b634fcc7e9da85353582f847a350f8b94f46bc0014184d97f6969c3f95b",
      "transactionIndex": "0x8",
      "blockHash": "0x2c66bbac20c14848279805f1819bc1b37f680e29832090b7a1c017fff8737552",
      "blockNumber": "0x8f50e4",
      "from": "0x0903961F9AeF3ceDC5CeeC5CF15E761C0cB38807",
      "to": "0x7c1DC50D061b87D4E94Cb09999729E0b57E1Ce34",
      "cumulativeGasUsed": "0x187ef2",
      "gasUsed": "0x25faf",
      "contractAddress": null,
      "logs": [
        {
          "address": "0x7c1DC50D061b87D4E94Cb09999729E0b57E1Ce34",
          "topics": [
            "0xddf252ad1be2c89b69c2b068fc378daa952ba7f163c4a11628f55a4df523b3ef",
            "0x0000000000000000000000000000000000000000000000000000000000000000",
            "0x000000000000000000000000e255e2404f50a2878c6587271698e81fd30e9d13",
            "0x0000000000000000000000000000000000000000000000000000000000000005"
          ],
          "data": "0x",
          "blockHash": "0x2c66bbac20c14848279805f1819bc1b37f680e29832090b7a1c017fff8737552",
          "blockNumber": "0x8f50e4",
          "transactionHash": "0x12488b634fcc7e9da85353582f847a350f8b94f46bc0014184d97f6969c3f95b",
          "transactionIndex": "0x8",
          "logIndex": "0x1d",
          "removed": false
        },
        {
          "address": "0x7c1DC50D061b87D4E94Cb09999729E0b57E1Ce34",
          "topics": [
            "0xf8e1a15aba9398e019f0b49df1a4fde98ee17ae345cb5f6b5e2c27f5033e8ce7"
          ],
          "data": "0x0000000000000000000000000000000000000000000000000000000000000005",
          "blockHash": "0x2c66bbac20c14848279805f1819bc1b37f680e29832090b7a1c017fff8737552",
          "blockNumber": "0x8f50e4",
          "transactionHash": "0x12488b634fcc7e9da85353582f847a350f8b94f46bc0014184d97f6969c3f95b",
          "transactionIndex": "0x8",
          "logIndex": "0x1e",
          "removed": false
        }
      ],
      "status": "0x1",
      "logsBloom": "0x00000000000000000000000000000000000000000000000000000000000800000000000000000000000000000010000000000200000000000000000000000000000010000000000000000008000000000000000000000000000000000000000000000000020000000000000000000800000000000000000000000010000000000000000080000000004000020000001000000800000000000000000000000000000000000000000000000000000000002000000000000000000000000000008000000002000000000000000000000000000000000000000000000000000020000000000000000000200000000000000000000000000000000000000000000000",
      "type": "0x2",
      "effectiveGasPrice": "0xc678e99e"
    }
  ],
  "libraries": [],
  "pending": [],
  "returns": {},
  "timestamp": 1690090099,
  "chain": 5,
  "multi": false,
  "commit": "67576f6"
}