{
  "transactions": [
    {
      "hash": "0x7bdc49a3be60332ce8c8254951f2f5670a258f703454a0db684d61f60b110b74",
      "transactionType": "CALL",
      "contractName": "MomeNFT",
      "contractAddress": "0x7c1DC50D061b87D4E94Cb09999729E0b57E1Ce34",
      "function": "safeMint(address,string)",
      "arguments": [
        "0xE255e2404f50a2878C6587271698e81fd30e9D13",
        ""
      ],
      "transaction": {
        "type": "0x02",
        "from": "0x0903961f9aef3cedc5ceec5cf15e761c0cb38807",
        "to": "0x7c1dc50d061b87d4e94cb09999729e0b57e1ce34",
        "gas": "0x33840",
        "value": "0x0",
        "data": "0xd204c45e000000000000000000000000e255e2404f50a2878c6587271698e81fd30e9d1300000000000000000000000000000000000000000000000000000000000000400000000000000000000000000000000000000000000000000000000000000000",
        "nonce": "0x15",
        "accessList": []
      },
      "additionalContracts": [],
      "isFixedGasLimit": false
    },
    {
      "hash": "0xd64d9076201cf6ea47af287ca20c80dc9e093b5432cc65702361bbb73175035b",
      "transactionType": "CALL",
      "contractName": "MomeNFT",
      "contractAddress": "0x7c1DC50D061b87D4E94Cb09999729E0b57E1Ce34",
      "function": "safeMint(address,string)",
      "arguments": [
        "0xE255e2404f50a2878C6587271698e81fd30e9D13",
        ""
      ],
      "transaction": {
        "type": "0x02",
        "from": "0x0903961f9aef3cedc5ceec5cf15e761c0cb38807",
        "to": "0x7c1dc50d061b87d4e94cb09999729e0b57e1ce34",
        "gas": "0x3475b",
        "value": "0x0",
        "data": "0xd204c45e000000000000000000000000e255e2404f50a2878c6587271698e81fd30e9d1300000000000000000000000000000000000000000000000000000000000000400000000000000000000000000000000000000000000000000000000000000000",
        "nonce": "0x16",
        "accessList": []
      },
      "additionalContracts": [],
      "isFixedGasLimit": false
    },
    {
      "hash": "0x12488b634fcc7e9da85353582f847a350f8b94f46bc0014184d97f6969c3f95b",
      "transactionType": "CALL",
      "contractName": "MomeNFT",
      "contractAddress": "0x7c1DC50D061b87D4E94Cb09999729E0b57E1Ce34",
      "function": "safeMint(address,string)",
      "arguments": [
        "0xE255e2404f50a2878C6587271698e81fd30e9D13",
        ""
      ],
      "transaction": {
        "type": "0x02",
        "from": "0x0903961f9aef3cedc5ceec5cf15e761c0cb38807",
        "to": "0x7c1dc50d061b87d4e94cb09999729e0b57e1ce34",
        "gas": "0x3475b",
        "value": "0x0",
        "data": "0xd204c45e000000000000000000000000e255e2404f50a2878c6587271698e81fd30e9d1300000000000000000000000000000000000000000000000000000000000000400000000000000000000000000000000000000000000000000000000000000000",
        "nonce": "0x17",
        "accessList": []
      },
      "additionalContracts": [],
      "isFixedGasLimit": false
    }
  ],
  "receipts": [],
  "libraries": [],
  "pending": [
    "0x7bdc49a3be60332ce8c8254951f2f5670a258f703454a0db684d61f60b110b74",
    "0xd64d9076201cf6ea47af287ca20c80dc9e093b5432cc65702361bbb73175035b",
    "0x12488b634fcc7e9da85353582f847a350f8b94f46bc0014184d97f6969c3f95b"
  ],
  "returns": {},
  "timestamp": 1690090080,
  "chain": 5,
  "multi": false,
  "commit": "67576f6"
}