{
  "transactions": [
    {
      "hash": "0x9634e4367c4aca8e3346184878a46063550333247bea5eeaa673a32fbd472a79",
      "transactionType": "CALL",
      "contractName": "MomeNFT",
      "contractAddress": "0x87F0F82F0e0c794D52111093aD5D3b29979799b5",
      "function": "safeMint(address,string)",
      "arguments": [
        "0x0000000000000000000000000000000000000001",
        ""
      ],
      "transaction": {
        "type": "0x02",
        "from": "0x0903961f9aef3cedc5ceec5cf15e761c0cb38807",
        "to": "0x87f0f82f0e0c794d52111093ad5d3b29979799b5",
        "gas": "0x2e3cf",
        "value": "0x0",
        "data": "0xd204c45e000000000000000000000000000000000000000000000000000000000000000100000000000000000000000000000000000000000000000000000000000000400000000000000000000000000000000000000000000000000000000000000000",
        "nonce": "0x7",
        "accessList": []
      },
      "additionalContracts": [],
      "isFixedGasLimit": false
    },
    {
      "hash": "0x3e351b3c809c03abb5006173ef966adee56f5526b0de8bd4eb340e548ee78cbd",
      "transactionType": "CALL",
      "contractName": "MomeNFT",
      "contractAddress": "0x87F0F82F0e0c794D52111093aD5D3b29979799b5",
      "function": "safeMint(address,string)",
      "arguments": [
        "0x0000000000000000000000000000000000000001",
        ""
      ],
      "transaction": {
        "type": "0x02",
        "from": "0x0903961f9aef3cedc5ceec5cf15e761c0cb38807",
        "to": "0x87f0f82f0e0c794d52111093ad5d3b29979799b5",
        "gas": "0x35367",
        "value": "0x0",
        "data": "0xd204c45e000000000000000000000000000000000000000000000000000000000000000100000000000000000000000000000000000000000000000000000000000000400000000000000000000000000000000000000000000000000000000000000000",
        "nonce": "0x8",
        "accessList": []
      },
      "additionalContracts": [],
      "isFixedGasLimit": false
    },
    {
      "hash": "0x93c7cc7d66ebca0ea29c09bb980d1a6cfe0df33c7f28534fba5302a9acead1eb",
      "transactionType": "CALL",
      "contractName": "MomeNFT",
      "contractAddress": "0x87F0F82F0e0c794D52111093aD5D3b29979799b5",
      "function": "safeMint(address,string)",
      "arguments": [
        "0x0000000000000000000000000000000000000001",
        ""
      ],
      "transaction": {
        "type": "0x02",
        "from": "0x0903961f9aef3cedc5ceec5cf15e761c0cb38807",
        "to": "0x87f0f82f0e0c794d52111093ad5d3b29979799b5",
        "gas": "0x35367",
        "value": "0x0",
        "data": "0xd204c45e000000000000000000000000000000000000000000000000000000000000000100000000000000000000000000000000000000000000000000000000000000400000000000000000000000000000000000000000000000000000000000000000",
        "nonce": "0x9",
        "accessList": []
      },
      "additionalContracts": [],
      "isFixedGasLimit": false
    }
  ],
  "receipts": [
    {
      "transactionHash": "0x9634e4367c4aca8e3346184878a46063550333247bea5eeaa673a32fbd472a79",
      "transactionIndex": "0x7",
      "blockHash": "0x0f4b884834135fc29afa0c42313dbe87b4f403a53ca29f713f365dcf77ecf884",
      "blockNumber": "0x8f475d",
      "from": "0x0903961F9AeF3ceDC5CeeC5CF15E761C0cB38807",
      "to": "0x87F0F82F0e0c794D52111093aD5D3b29979799b5",
      "cumulativeGasUsed": "0x129dc3",
      "gasUsed": "0x1f9db",
      "contractAddress": null,
      "logs": [
        {
          "address": "0x87F0F82F0e0c794D52111093aD5D3b29979799b5",
          "topics": [
            "0xddf252ad1be2c89b69c2b068fc378daa952ba7f163c4a11628f55a4df523b3ef",
            "0x0000000000000000000000000000000000000000000000000000000000000000",
            "0x0000000000000000000000000000000000000000000000000000000000000001",
            "0x0000000000000000000000000000000000000000000000000000000000000000"
          ],
          "data": "0x",
          "blockHash": "0x0f4b884834135fc29afa0c42313dbe87b4f403a53ca29f713f365dcf77ecf884",
          "blockNumber": "0x8f475d",
          "transactionHash": "0x9634e4367c4aca8e3346184878a46063550333247bea5eeaa673a32fbd472a79",
          "transactionIndex": "0x7",
          "logIndex": "0x5",
          "removed": false
        },
        {
          "address": "0x87F0F82F0e0c794D52111093aD5D3b29979799b5",
          "topics": [
            "0xf8e1a15aba9398e019f0b49df1a4fde98ee17ae345cb5f6b5e2c27f5033e8ce7"
          ],
          "data": "0x0000000000000000000000000000000000000000000000000000000000000000",
          "blockHash": "0x0f4b884834135fc29afa0c42313dbe87b4f403a53ca29f713f365dcf77ecf884",
          "blockNumber": "0x8f475d",
          "transactionHash": "0x9634e4367c4aca8e3346184878a46063550333247bea5eeaa673a32fbd472a79",
          "transactionIndex": "0x7",
          "logIndex": "0x6",
          "removed": false
        }
      ],
      "status": "0x1",
      "logsBloom": "0x00000000000000000000000000400000000000000000000000000000000000000000000000000000000000000000000000000000000000000000000000040000000000200000000000000008000000000000000000040000000000000000000000000000020000000000000000000800000000000000000000000010000000000000000000000000000000000000000000000000000000000000000000000000000000000000000000000000000000002000000000000000000000000000008000000002000000000000000000000000000000000000000400000000000060000000000000000000200000000000000000000000000000000000000000000000",
      "type": "0x2",
      "effectiveGasPrice": "0xb64975e8"
    },
    {
      "transactionHash": "0x3e351b3c809c03abb5006173ef966adee56f5526b0de8bd4eb340e548ee78cbd",
      "transactionIndex": "0x8",
      "blockHash": "0x0f4b884834135fc29afa0c42313dbe87b4f403a53ca29f713f365dcf77ecf884",
      "blockNumber": "0x8f475d",
      "from": "0x0903961F9AeF3ceDC5CeeC5CF15E761C0cB38807",
      "to": "0x87F0F82F0e0c794D52111093aD5D3b29979799b5",
      "cumulativeGasUsed": "0x15062a",
      "gasUsed": "0x26867",
      "contractAddress": null,
      "logs": [
        {
          "address": "0x87F0F82F0e0c794D52111093aD5D3b29979799b5",
          "topics": [
            "0xddf252ad1be2c89b69c2b068fc378daa952ba7f163c4a11628f55a4df523b3ef",
            "0x0000000000000000000000000000000000000000000000000000000000000000",
            "0x0000000000000000000000000000000000000000000000000000000000000001",
            "0x0000000000000000000000000000000000000000000000000000000000000001"
          ],
          "data": "0x",
          "blockHash": "0x0f4b884834135fc29afa0c42313dbe87b4f403a53ca29f713f365dcf77ecf884",
          "blockNumber": "0x8f475d",
          "transactionHash": "0x3e351b3c809c03abb5006173ef966adee56f5526b0de8bd4eb340e548ee78cbd",
          "transactionIndex": "0x8",
          "logIndex": "0x7",
          "removed": false
        },
        {
          "address": "0x87F0F82F0e0c794D52111093aD5D3b29979799b5",
          "topics": [
            "0xf8e1a15aba9398e019f0b49df1a4fde98ee17ae345cb5f6b5e2c27f5033e8ce7"
          ],
          "data": "0x0000000000000000000000000000000000000000000000000000000000000001",
          "blockHash": "0x0f4b884834135fc29afa0c42313dbe87b4f403a53ca29f713f365dcf77ecf884",
          "blockNumber": "0x8f475d",
          "transactionHash": "0x3e351b3c809c03abb5006173ef966adee56f5526b0de8bd4eb340e548ee78cbd",
          "transactionIndex": "0x8",
          "logIndex": "0x8",
          "removed": false
        }
      ],
      "status": "0x1",
      "logsBloom": "0x00000000000000000000000000400000000000000000000000000000000000000000000000000000000000000000000000000000000000000000000000040000000000200000000000000008000000000000000000040000000000000000000000000000020000000000000000000800000000000000000000000010000000000000000000000000000000000000000000000000000000000000000000000000000000000000000000000000000000002000000000000000000000000000008000000002000000000000000000000000000000000000000400000000000060000000000000000000200000000000000000000000000000000000000000000000",
      "type": "0x2",
      "effectiveGasPrice": "0xb64975e8"
    },
    {
      "transactionHash": "0x93c7cc7d66ebca0ea29c09bb980d1a6cfe0df33c7f28534fba5302a9acead1eb",
      "transactionIndex": "0x9",
      "blockHash": "0x0f4b884834135fc29afa0c42313dbe87b4f403a53ca29f713f365dcf77ecf884",
      "blockNumber": "0x8f475d",
      "from": "0x0903961F9AeF3ceDC5CeeC5CF15E761C0cB38807",
      "to": "0x87F0F82F0e0c794D52111093aD5D3b29979799b5",
      "cumulativeGasUsed": "0x176e91",
      "gasUsed": "0x26867",
      "contractAddress": null,
      "logs": [
        {
          "address": "0x87F0F82F0e0c794D52111093aD5D3b29979799b5",
          "topics": [
            "0xddf252ad1be2c89b69c2b068fc378daa952ba7f163c4a11628f55a4df523b3ef",
            "0x0000000000000000000000000000000000000000000000000000000000000000",
            "0x0000000000000000000000000000000000000000000000000000000000000001",
            "0x0000000000000000000000000000000000000000000000000000000000000002"
          ],
          "data": "0x",
          "blockHash": "0x0f4b884834135fc29afa0c42313dbe87b4f403a53ca29f713f365dcf77ecf884",
          "blockNumber": "0x8f475d",
          "transactionHash": "0x93c7cc7d66ebca0ea29c09bb980d1a6cfe0df33c7f28534fba5302a9acead1eb",
          "transactionIndex": "0x9",
          "logIndex": "0x9",
          "removed": false
        },
        {
          "address": "0x87F0F82F0e0c794D52111093aD5D3b29979799b5",
          "topics": [
            "0xf8e1a15aba9398e019f0b49df1a4fde98ee17ae345cb5f6b5e2c27f5033e8ce7"
          ],
          "data": "0x0000000000000000000000000000000000000000000000000000000000000002",
          "blockHash": "0x0f4b884834135fc29afa0c42313dbe87b4f403a53ca29f713f365dcf77ecf884",
          "blockNumber": "0x8f475d",
          "transactionHash": "0x93c7cc7d66ebca0ea29c09bb980d1a6cfe0df33c7f28534fba5302a9acead1eb",
          "transactionIndex": "0x9",
          "logIndex": "0xa",
          "removed": false
        }
      ],
      "status": "0x1",
      "logsBloom": "0x04000000000000000000000000400000000000000000000000000000000000000000000000000000000000000000000000000000000000000000000000040000000000200000000000000008000000000000000000040000000000000000000000000000020000000000000000000800000000000000000000000010000000000000000000000000000000000000000000000000000000000000000000000000000000000000000000000100000000002000000000000000000000000000008000000002000000000000000000000000000000000000000400000000000060000000000000000000200000000000000000000000008000000000000000000000",
      "type": "0x2",
      "effectiveGasPrice": "0xb64975e8"
    }
  ],
  "libraries": [],
  "pending": [],
  "returns": {},
  "timestamp": 1690053184,
  "chain": 5,
  "multi": false,
  "commit": "d6f6210"
}