{
  "transactions": [
    {
      "hash": "0x9634e4367c4aca8e3346184878a46063550333247bea5eeaa673a32fbd472a79",
      "transactionType": "CALL",
      "contractName": "MomeNFT",
      "contractAddress": "0x87F0F82F0e0c794D52111093aD5D3b29979799b5",
      "function": "safeMint(address,string)",
      "arguments": [
        "0x0000000000000000000000000000000000000001",
        ""
      ],
      "transaction": {
        "type": "0x02",
        "from": "0x0903961f9aef3cedc5ceec5cf15e761c0cb38807",
        "to": "0x87f0f82f0e0c794d52111093ad5d3b29979799b5",
        "gas": "0x2e3cf",
        "value": "0x0",
        "data": "0xd204c45e000000000000000000000000000000000000000000000000000000000000000100000000000000000000000000000000000000000000000000000000000000400000000000000000000000000000000000000000000000000000000000000000",
        "nonce": "0x7",
        "accessList": []
      },
      "additionalContracts": [],
      "isFixedGasLimit": false
    },
    {
      "hash": "0x3e351b3c809c03abb5006173ef966adee56f5526b0de8bd4eb340e548ee78cbd",
      "transactionType": "CALL",
      "contractName": "MomeNFT",
      "contractAddress": "0x87F0F82F0e0c794D52111093aD5D3b29979799b5",
      "function": "safeMint(address,string)",
      "arguments": [
        "0x0000000000000000000000000000000000000001",
        ""
      ],
      "transaction": {
        "type": "0x02",
        "from": "0x0903961f9aef3cedc5ceec5cf15e761c0cb38807",
        "to": "0x87f0f82f0e0c794d52111093ad5d3b29979799b5",
        "gas": "0x35367",
        "value": "0x0",
        "data": "0xd204c45e000000000000000000000000000000000000000000000000000000000000000100000000000000000000000000000000000000000000000000000000000000400000000000000000000000000000000000000000000000000000000000000000",
        "nonce": "0x8",
        "accessList": []
      },
      "additionalContracts": [],
      "isFixedGasLimit": false
    },
    {
      "hash": "0x93c7cc7d66ebca0ea29c09bb980d1a6cfe0df33c7f28534fba5302a9acead1eb",
      "transactionType": "CALL",
      "contractName": "MomeNFT",
      "contractAddress": "0x87F0F82F0e0c794D52111093aD5D3b29979799b5",
      "function": "safeMint(address,string)",
      "arguments": [
        "0x0000000000000000000000000000000000000001",
        ""
      ],
      "transaction": {
        "type": "0x02",
        "from": "0x0903961f9aef3cedc5ceec5cf15e761c0cb38807",
        "to": "0x87f0f82f0e0c794d52111093ad5d3b29979799b5",
        "gas": "0x35367",
        "value": "0x0",
        "data": "0xd204c45e000000000000000000000000000000000000000000000000000000000000000100000000000000000000000000000000000000000000000000000000000000400000000000000000000000000000000000000000000000000000000000000000",
        "nonce": "0x9",
        "accessList": []
      },
      "additionalContracts": [],
      "isFixedGasLimit": false
    }
  ],
  "receipts": [],
  "libraries": [],
  "pending": [
    "0x9634e4367c4aca8e3346184878a46063550333247bea5eeaa673a32fbd472a79",
    "0x3e351b3c809c03abb5006173ef966adee56f5526b0de8bd4eb340e548ee78cbd",
    "0x93c7cc7d66ebca0ea29c09bb980d1a6cfe0df33c7f28534fba5302a9acead1eb"
  ],
  "returns": {},
  "timestamp": 1690053171,
  "chain": 5,
  "multi": false,
  "commit": "d6f6210"
}