{
  "transactions": [
    {
      "hash": "0x86849ce51ab4dfe88a23ef55bab9453b7cb8273a96285e1b232d1292106260a7",
      "transactionType": "CALL",
      "contractName": "MomeNFT",
      "contractAddress": "0x7c1DC50D061b87D4E94Cb09999729E0b57E1Ce34",
      "function": "safeMint(address,string)",
      "arguments": [
        "0x0000000000000000000000000000000000000001",
        ""
      ],
      "transaction": {
        "type": "0x02",
        "from": "0x0903961f9aef3cedc5ceec5cf15e761c0cb38807",
        "to": "0x7c1dc50d061b87d4e94cb09999729e0b57e1ce34",
        "gas": "0x2ad6f",
        "value": "0x0",
        "data": "0xd204c45e000000000000000000000000000000000000000000000000000000000000000100000000000000000000000000000000000000000000000000000000000000400000000000000000000000000000000000000000000000000000000000000000",
        "nonce": "0xc",
        "accessList": []
      },
      "additionalContracts": [],
      "isFixedGasLimit": false
    },
    {
      "hash": "0x12a08c320f8c0425ec774ed6ad6e33379954174ce12395fcf1192fae37918d5b",
      "transactionType": "CALL",
      "contractName": "MomeNFT",
      "contractAddress": "0x7c1DC50D061b87D4E94Cb09999729E0b57E1Ce34",
      "function": "safeMint(address,string)",
      "arguments": [
        "0x0000000000000000000000000000000000000001",
        ""
      ],
      "transaction": {
        "type": "0x02",
        "from": "0x0903961f9aef3cedc5ceec5cf15e761c0cb38807",
        "to": "0x7c1dc50d061b87d4e94cb09999729e0b57e1ce34",
        "gas": "0x3776e",
        "value": "0x0",
        "data": "0xd204c45e000000000000000000000000000000000000000000000000000000000000000100000000000000000000000000000000000000000000000000000000000000400000000000000000000000000000000000000000000000000000000000000000",
        "nonce": "0xd",
        "accessList": []
      },
      "additionalContracts": [],
      "isFixedGasLimit": false
    },
    {
      "hash": "0xb326e3f9858d6ec08782a3e9968270de1eb74d6f0c42465f78121074ae7c66e3",
      "transactionType": "CALL",
      "contractName": "MomeNFT",
      "contractAddress": "0x7c1DC50D061b87D4E94Cb09999729E0b57E1Ce34",
      "function": "safeMint(address,string)",
      "arguments": [
        "0x0000000000000000000000000000000000000001",
        ""
      ],
      "transaction": {
        "type": "0x02",
        "from": "0x0903961f9aef3cedc5ceec5cf15e761c0cb38807",
        "to": "0x7c1dc50d061b87d4e94cb09999729e0b57e1ce34",
        "gas": "0x3776e",
        "value": "0x0",
        "data": "0xd204c45e000000000000000000000000000000000000000000000000000000000000000100000000000000000000000000000000000000000000000000000000000000400000000000000000000000000000000000000000000000000000000000000000",
        "nonce": "0xe",
        "accessList": []
      },
      "additionalContracts": [],
      "isFixedGasLimit": false
    }
  ],
  "receipts": [
    {
      "transactionHash": "0x86849ce51ab4dfe88a23ef55bab9453b7cb8273a96285e1b232d1292106260a7",
      "transactionIndex": "0x10",
      "blockHash": "0x51fdaa97c8b44d097f854f1f89d900111d96f046ab8845500bfc4ca4747c7ae9",
      "blockNumber": "0x8f477a",
      "from": "0x0903961F9AeF3ceDC5CeeC5CF15E761C0cB38807",
      "to": "0x7c1DC50D061b87D4E94Cb09999729E0b57E1Ce34",
      "cumulativeGasUsed": "0x5ae97a",
      "gasUsed": "0x1f03f",
      "contractAddress": null,
      "logs": [
        {
          "address": "0x7c1DC50D061b87D4E94Cb09999729E0b57E1Ce34",
          "topics": [
            "0xddf252ad1be2c89b69c2b068fc378daa952ba7f163c4a11628f55a4df523b3ef",
            "0x0000000000000000000000000000000000000000000000000000000000000000",
            "0x0000000000000000000000000000000000000000000000000000000000000001",
            "0x0000000000000000000000000000000000000000000000000000000000000000"
          ],
          "data": "0x",
          "blockHash": "0x51fdaa97c8b44d097f854f1f89d900111d96f046ab8845500bfc4ca4747c7ae9",
          "blockNumber": "0x8f477a",
          "transactionHash": "0x86849ce51ab4dfe88a23ef55bab9453b7cb8273a96285e1b232d1292106260a7",
          "transactionIndex": "0x10",
          "logIndex": "0x1b",
          "removed": false
        },
        {
          "address": "0x7c1DC50D061b87D4E94Cb09999729E0b57E1Ce34",
          "topics": [
            "0xf8e1a15aba9398e019f0b49df1a4fde98ee17ae345cb5f6b5e2c27f5033e8ce7"
          ],
          "data": "0x0000000000000000000000000000000000000000000000000000000000000000",
          "blockHash": "0x51fdaa97c8b44d097f854f1f89d900111d96f046ab8845500bfc4ca4747c7ae9",
          "blockNumber": "0x8f477a",
          "transactionHash": "0x86849ce51ab4dfe88a23ef55bab9453b7cb8273a96285e1b232d1292106260a7",
          "transactionIndex": "0x10",
          "logIndex": "0x1c",
          "removed": false
        }
      ],
      "status": "0x1",
      "logsBloom": "0x00000000000000000000000000000000000000000000000000000000000800000000000000000000000000000010000000000200000000000000000000040000000000000000000000000008000000000000000000040000000000000000000000000000020000000000000000000800000000000000000000000010000000000000000000000000000000000000000000000000000000000000000000000000000000000000000000000000000000002000000000000000000000000000008000000002000000000000000000000000000000000000000000000000000060000000000000000000200000000000000000000000000000000000000000000000",
      "type": "0x2",
      "effectiveGasPrice": "0x10ae04fd6"
    },
    {
      "transactionHash": "0x12a08c320f8c0425ec774ed6ad6e33379954174ce12395fcf1192fae37918d5b",
      "transactionIndex": "0x11",
      "blockHash": "0x51fdaa97c8b44d097f854f1f89d900111d96f046ab8845500bfc4ca4747c7ae9",
      "blockNumber": "0x8f477a",
      "from": "0x0903961F9AeF3ceDC5CeeC5CF15E761C0cB38807",
      "to": "0x7c1DC50D061b87D4E94Cb09999729E0b57E1Ce34",
      "cumulativeGasUsed": "0x5d4845",
      "gasUsed": "0x25ecb",
      "contractAddress": null,
      "logs": [
        {
          "address": "0x7c1DC50D061b87D4E94Cb09999729E0b57E1Ce34",
          "topics": [
            "0xddf252ad1be2c89b69c2b068fc378daa952ba7f163c4a11628f55a4df523b3ef",
            "0x0000000000000000000000000000000000000000000000000000000000000000",
            "0x0000000000000000000000000000000000000000000000000000000000000001",
            "0x0000000000000000000000000000000000000000000000000000000000000001"
          ],
          "data": "0x",
          "blockHash": "0x51fdaa97c8b44d097f854f1f89d900111d96f046ab8845500bfc4ca4747c7ae9",
          "blockNumber": "0x8f477a",
          "transactionHash": "0x12a08c320f8c0425ec774ed6ad6e33379954174ce12395fcf1192fae37918d5b",
          "transactionIndex": "0x11",
          "logIndex": "0x1d",
          "removed": false
        },
        {
          "address": "0x7c1DC50D061b87D4E94Cb09999729E0b57E1Ce34",
          "topics": [
            "0xf8e1a15aba9398e019f0b49df1a4fde98ee17ae345cb5f6b5e2c27f5033e8ce7"
          ],
          "data": "0x0000000000000000000000000000000000000000000000000000000000000001",
          "blockHash": "0x51fdaa97c8b44d097f854f1f89d900111d96f046ab8845500bfc4ca4747c7ae9",
          "blockNumber": "0x8f477a",
          "transactionHash": "0x12a08c320f8c0425ec774ed6ad6e33379954174ce12395fcf1192fae37918d5b",
          "transactionIndex": "0x11",
          "logIndex": "0x1e",
          "removed": false
        }
      ],
      "status": "0x1",
      "logsBloom": "0x00000000000000000000000000000000000000000000000000000000000800000000000000000000000000000010000000000200000000000000000000040000000000000000000000000008000000000000000000040000000000000000000000000000020000000000000000000800000000000000000000000010000000000000000000000000000000000000000000000000000000000000000000000000000000000000000000000000000000002000000000000000000000000000008000000002000000000000000000000000000000000000000000000000000060000000000000000000200000000000000000000000000000000000000000000000",
      "type": "0x2",
      "effectiveGasPrice": "0x10ae04fd6"
    },
    {
      "transactionHash": "0xb326e3f9858d6ec08782a3e9968270de1eb74d6f0c42465f78121074ae7c66e3",
      "transactionIndex": "0x12",
      "blockHash": "0x51fdaa97c8b44d097f854f1f89d900111d96f046ab8845500bfc4ca4747c7ae9",
      "blockNumber": "0x8f477a",
      "from": "0x0903961F9AeF3ceDC5CeeC5CF15E761C0cB38807",
      "to": "0x7c1DC50D061b87D4E94Cb09999729E0b57E1Ce34",
      "cumulativeGasUsed": "0x5fa710",
      "gasUsed": "0x25ecb",
      "contractAddress": null,
      "logs": [
        {
          "address": "0x7c1DC50D061b87D4E94Cb09999729E0b57E1Ce34",
          "topics": [
            "0xddf252ad1be2c89b69c2b068fc378daa952ba7f163c4a11628f55a4df523b3ef",
            "0x0000000000000000000000000000000000000000000000000000000000000000",
            "0x0000000000000000000000000000000000000000000000000000000000000001",
            "0x0000000000000000000000000000000000000000000000000000000000000002"
          ],
          "data": "0x",
          "blockHash": "0x51fdaa97c8b44d097f854f1f89d900111d96f046ab8845500bfc4ca4747c7ae9",
          "blockNumber": "0x8f477a",
          "transactionHash": "0xb326e3f9858d6ec08782a3e9968270de1eb74d6f0c42465f78121074ae7c66e3",
          "transactionIndex": "0x12",
          "logIndex": "0x1f",
          "removed": false
        },
        {
          "address": "0x7c1DC50D061b87D4E94Cb09999729E0b57E1Ce34",
          "topics": [
            "0xf8e1a15aba9398e019f0b49df1a4fde98ee17ae345cb5f6b5e2c27f5033e8ce7"
          ],
          "data": "0x0000000000000000000000000000000000000000000000000000000000000002",
          "blockHash": "0x51fdaa97c8b44d097f854f1f89d900111d96f046ab8845500bfc4ca4747c7ae9",
          "blockNumber": "0x8f477a",
          "transactionHash": "0xb326e3f9858d6ec08782a3e9968270de1eb74d6f0c42465f78121074ae7c66e3",
          "transactionIndex": "0x12",
          "logIndex": "0x20",
          "removed": false
        }
      ],
      "status": "0x1",
      "logsBloom": "0x04000000000000000000000000000000000000000000000000000000000800000000000000000000000000000010000000000200000000000000000000040000000000000000000000000008000000000000000000040000000000000000000000000000020000000000000000000800000000000000000000000010000000000000000000000000000000000000000000000000000000000000000000000000000000000000000000000100000000002000000000000000000000000000008000000002000000000000000000000000000000000000000000000000000060000000000000000000200000000000000000000000008000000000000000000000",
      "type": "0x2",
      "effectiveGasPrice": "0x10ae04fd6"
    }
  ],
  "libraries": [],
  "pending": [],
  "returns": {},
  "timestamp": 1690053656,
  "chain": 5,
  "multi": false,
  "commit": "d6f6210"
}