{
  "transactions": [
    {
      "hash": "0x86849ce51ab4dfe88a23ef55bab9453b7cb8273a96285e1b232d1292106260a7",
      "transactionType": "CALL",
      "contractName": "MomeNFT",
      "contractAddress": "0x7c1DC50D061b87D4E94Cb09999729E0b57E1Ce34",
      "function": "safeMint(address,string)",
      "arguments": [
        "0x0000000000000000000000000000000000000001",
        ""
      ],
      "transaction": {
        "type": "0x02",
        "from": "0x0903961f9aef3cedc5ceec5cf15e761c0cb38807",
        "to": "0x7c1dc50d061b87d4e94cb09999729e0b57e1ce34",
        "gas": "0x2ad6f",
        "value": "0x0",
        "data": "0xd204c45e000000000000000000000000000000000000000000000000000000000000000100000000000000000000000000000000000000000000000000000000000000400000000000000000000000000000000000000000000000000000000000000000",
        "nonce": "0xc",
        "accessList": []
      },
      "additionalContracts": [],
      "isFixedGasLimit": false
    },
    {
      "hash": "0x12a08c320f8c0425ec774ed6ad6e33379954174ce12395fcf1192fae37918d5b",
      "transactionType": "CALL",
      "contractName": "MomeNFT",
      "contractAddress": "0x7c1DC50D061b87D4E94Cb09999729E0b57E1Ce34",
      "function": "safeMint(address,string)",
      "arguments": [
        "0x0000000000000000000000000000000000000001",
        ""
      ],
      "transaction": {
        "type": "0x02",
        "from": "0x0903961f9aef3cedc5ceec5cf15e761c0cb38807",
        "to": "0x7c1dc50d061b87d4e94cb09999729e0b57e1ce34",
        "gas": "0x3776e",
        "value": "0x0",
        "data": "0xd204c45e000000000000000000000000000000000000000000000000000000000000000100000000000000000000000000000000000000000000000000000000000000400000000000000000000000000000000000000000000000000000000000000000",
        "nonce": "0xd",
        "accessList": []
      },
      "additionalContracts": [],
      "isFixedGasLimit": false
    },
    {
      "hash": "0xb326e3f9858d6ec08782a3e9968270de1eb74d6f0c42465f78121074ae7c66e3",
      "transactionType": "CALL",
      "contractName": "MomeNFT",
      "contractAddress": "0x7c1DC50D061b87D4E94Cb09999729E0b57E1Ce34",
      "function": "safeMint(address,string)",
      "arguments": [
        "0x0000000000000000000000000000000000000001",
        ""
      ],
      "transaction": {
        "type": "0x02",
        "from": "0x0903961f9aef3cedc5ceec5cf15e761c0cb38807",
        "to": "0x7c1dc50d061b87d4e94cb09999729e0b57e1ce34",
        "gas": "0x3776e",
        "value": "0x0",
        "data": "0xd204c45e000000000000000000000000000000000000000000000000000000000000000100000000000000000000000000000000000000000000000000000000000000400000000000000000000000000000000000000000000000000000000000000000",
        "nonce": "0xe",
        "accessList": []
      },
      "additionalContracts": [],
      "isFixedGasLimit": false
    }
  ],
  "receipts": [],
  "libraries": [],
  "pending": [
    "0x86849ce51ab4dfe88a23ef55bab9453b7cb8273a96285e1b232d1292106260a7",
    "0x12a08c320f8c0425ec774ed6ad6e33379954174ce12395fcf1192fae37918d5b",
    "0xb326e3f9858d6ec08782a3e9968270de1eb74d6f0c42465f78121074ae7c66e3"
  ],
  "returns": {},
  "timestamp": 1690053625,
  "chain": 5,
  "multi": false,
  "commit": "d6f6210"
}