{
  "transactions": [
    {
      "hash": "0x35526a594ce0027f93356ff3cadfd2e430efe6cf57de00bb4bec4a033af243e9",
      "transactionType": "CALL",
      "contractName": "ERC6551Registry",
      "contractAddress": "0x02101dfB77FDE026414827Fdc604ddAF224F0921",
      "function": "createAccount(address,uint256,address,uint256,uint256,bytes):(address)",
      "arguments": [
        "0x2D25602551487C3f3354dD80D76D54383A243358",
        "5",
        "0x7c1DC50D061b87D4E94Cb09999729E0b57E1Ce34",
        "3031",
        "0",
        "0x"
      ],
      "transaction": {
        "type": "0x02",
        "from": "0x0903961f9aef3cedc5ceec5cf15e761c0cb38807",
        "to": "0x02101dfb77fde026414827fdc604ddaf224f0921",
        "gas": "0x207d7",
        "value": "0x0",
        "data": "0xda7323b30000000000000000000000002d25602551487c3f3354dd80d76d54383a24335800000000000000000000000000000000000000000000000000000000000000050000000000000000000000007c1dc50d061b87d4e94cb09999729e0b57e1ce340000000000000000000000000000000000000000000000000000000000000bd7000000000000000000000000000000000000000000000000000000000000000000000000000000000000000000000000000000000000000000000000000000c00000000000000000000000000000000000000000000000000000000000000000",
        "nonce": "0x17",
        "accessList": []
      },
      "additionalContracts": [
        {
          "transactionType": "CREATE2",
          "address": "0xE255e2404f50a2878C6587271698e81fd30e9D13",
          "initCode": "3d60ad80600a3d3981f3363d3d373d3d3d363d732d25602551487c3f3354dd80d76d54383a2433585af43d82803e903d91602b57fd5bf3000000000000000000000000000000000000000000000000000000000000000000000000000000000000000000000000000000000000000000000000000000050000000000000000000000007c1dc50d061b87d4e94cb09999729e0b57e1ce340000000000000000000000000000000000000000000000000000000000000bd7"
        }
      ],
      "isFixedGasLimit": false
    }
  ],
  "receipts": [
    {
      "transactionHash": "0x35526a594ce0027f93356ff3cadfd2e430efe6cf57de00bb4bec4a033af243e9",
      "transactionIndex": "0xc",
      "blockHash": "0xc9e95eac198834c6af06409e60909c10721977991ec9e3df2d1fb3fba8b8b35d",
      "blockNumber": "0x2471ff3",
      "from": "0x0903961F9AeF3ceDC5CeeC5CF15E761C0cB38807",
      "to": "0x02101dfB77FDE026414827Fdc604ddAF224F0921",
      "cumulativeGasUsed": "0x119787",
      "gasUsed": "0x1785c",
      "contractAddress": null,
      "logs": [
        {
          "address": "0x02101dfB77FDE026414827Fdc604ddAF224F0921",
          "topics": [
            "0x07fba7bba1191da7ee1155dcfa0030701c9c9a9cc34a93b991fc6fd0c9268d8f"
          ],
          "data": "0x000000000000000000000000e255e2404f50a2878c6587271698e81fd30e9d130000000000000000000000002d25602551487c3f3354dd80d76d54383a24335800000000000000000000000000000000000000000000000000000000000000050000000000000000000000007c1dc50d061b87d4e94cb09999729e0b57e1ce340000000000000000000000000000000000000000000000000000000000000bd70000000000000000000000000000000000000000000000000000000000000000",
          "blockHash": "0xc9e95eac198834c6af06409e60909c10721977991ec9e3df2d1fb3fba8b8b35d",
          "blockNumber": "0x2471ff3",
          "transactionHash": "0x35526a594ce0027f93356ff3cadfd2e430efe6cf57de00bb4bec4a033af243e9",
          "transactionIndex": "0xc",
          "logIndex": "0x31",
          "removed": false
        },
        {
          "address": "0x0000000000000000000000000000000000001010",
          "topics": [
            "0x4dfe1bbbcf077ddc3e01291eea2d5c70c2b422b415d95645b9adcfd678cb1d63",
            "0x0000000000000000000000000000000000000000000000000000000000001010",
            "0x0000000000000000000000000903961f9aef3cedc5ceec5cf15e761c0cb38807",
            "0x000000000000000000000000c275dc8be39f50d12f66b6a63629c39da5bae5bd"
          ],
          "data": "0x0000000000000000000000000000000000000000000000000000af418889aa40000000000000000000000000000000000000000000000000020cb92a62f486df00000000000000000000000000000000000000000000125387504e08cccfe527000000000000000000000000000000000000000000000000020c09e8da6adc9f0000000000000000000000000000000000000000000012538750fd4a55598f67",
          "blockHash": "0xc9e95eac198834c6af06409e60909c10721977991ec9e3df2d1fb3fba8b8b35d",
          "blockNumber": "0x2471ff3",
          "transactionHash": "0x35526a594ce0027f93356ff3cadfd2e430efe6cf57de00bb4bec4a033af243e9",
          "transactionIndex": "0xc",
          "logIndex": "0x32",
          "removed": false
        }
      ],
      "status": "0x1",
      "logsBloom": "0x00000000000000000000000000000000000000000010000000000000000000000000000000000000000000000000000000008000002000000000000000010002000000000000000000000000000000800000080000000000040100000000800000000000000000000000000000000000000000000000000080000000000000000000000000000000000000000200000000000000000000000000000000000000200000000000000000000000000000000000000000000000000040000000004000000000000000000001000000000000000000000000000000180000000000000000001000000000000000000000000000000000000000000000002000100000",
      "type": "0x2",
      "effectiveGasPrice": "0x77359400"
    }
  ],
  "libraries": [],
  "pending": [],
  "returns": {},
  "timestamp": 1690084207,
  "chain": 80001,
  "multi": false,
  "commit": "91d96cb"
}