{
  "transactions": [
    {
      "hash": "0x35526a594ce0027f93356ff3cadfd2e430efe6cf57de00bb4bec4a033af243e9",
      "transactionType": "CALL",
      "contractName": "ERC6551Registry",
      "contractAddress": "0x02101dfB77FDE026414827Fdc604ddAF224F0921",
      "function": "createAccount(address,uint256,address,uint256,uint256,bytes):(address)",
      "arguments": [
        "0x2D25602551487C3f3354dD80D76D54383A243358",
        "5",
        "0x7c1DC50D061b87D4E94Cb09999729E0b57E1Ce34",
        "3031",
        "0",
        "0x"
      ],
      "transaction": {
        "type": "0x02",
        "from": "0x0903961f9aef3cedc5ceec5cf15e761c0cb38807",
        "to": "0x02101dfb77fde026414827fdc604ddaf224f0921",
        "gas": "0x207d7",
        "value": "0x0",
        "data": "0xda7323b30000000000000000000000002d25602551487c3f3354dd80d76d54383a24335800000000000000000000000000000000000000000000000000000000000000050000000000000000000000007c1dc50d061b87d4e94cb09999729e0b57e1ce340000000000000000000000000000000000000000000000000000000000000bd7000000000000000000000000000000000000000000000000000000000000000000000000000000000000000000000000000000000000000000000000000000c00000000000000000000000000000000000000000000000000000000000000000",
        "nonce": "0x17",
        "accessList": []
      },
      "additionalContracts": [
        {
          "transactionType": "CREATE2",
          "address": "0xE255e2404f50a2878C6587271698e81fd30e9D13",
          "initCode": "3d60ad80600a3d3981f3363d3d373d3d3d363d732d25602551487c3f3354dd80d76d54383a2433585af43d82803e903d91602b57fd5bf3000000000000000000000000000000000000000000000000000000000000000000000000000000000000000000000000000000000000000000000000000000050000000000000000000000007c1dc50d061b87d4e94cb09999729e0b57e1ce340000000000000000000000000000000000000000000000000000000000000bd7"
        }
      ],
      "isFixedGasLimit": false
    }
  ],
  "receipts": [],
  "libraries": [],
  "pending": [
    "0x35526a594ce0027f93356ff3cadfd2e430efe6cf57de00bb4bec4a033af243e9"
  ],
  "returns": {},
  "timestamp": 1690084201,
  "chain": 80001,
  "multi": false,
  "commit": "91d96cb"
}