{
  "transactions": [
    {
      "hash": "0x9d83de3035cde9c9dee9779f5b74e13d6b68b523d1e9fb949ec85079492be3ca",
      "transactionType": "CALL",
      "contractName": "ERC6551Registry",
      "contractAddress": "0x02101dfB77FDE026414827Fdc604ddAF224F0921",
      "function": "createAccount(address,uint256,address,uint256,uint256,bytes):(address)",
      "arguments": [
        "0x2D25602551487C3f3354dD80D76D54383A243358",
        "5",
        "0x77Dda100716148ab1F4456b6fa596663B14cb0A8",
        "3031",
        "0",
        "0x"
      ],
      "transaction": {
        "type": "0x02",
        "from": "0x0903961f9aef3cedc5ceec5cf15e761c0cb38807",
        "to": "0x02101dfb77fde026414827fdc604ddaf224f0921",
        "gas": "0x207c8",
        "value": "0x0",
        "data": "0xda7323b30000000000000000000000002d25602551487c3f3354dd80d76d54383a243358000000000000000000000000000000000000000000000000000000000000000500000000000000000000000077dda100716148ab1f4456b6fa596663b14cb0a80000000000000000000000000000000000000000000000000000000000000bd7000000000000000000000000000000000000000000000000000000000000000000000000000000000000000000000000000000000000000000000000000000c00000000000000000000000000000000000000000000000000000000000000000",
        "nonce": "0x4",
        "accessList": []
      },
      "additionalContracts": [
        {
          "transactionType": "CREATE2",
          "address": "0x4F4c55051d78a3BB1127dA6455a163d9586f2A88",
          "initCode": "3d60ad80600a3d3981f3363d3d373d3d3d363d732d25602551487c3f3354dd80d76d54383a2433585af43d82803e903d91602b57fd5bf30000000000000000000000000000000000000000000000000000000000000000000000000000000000000000000000000000000000000000000000000000000500000000000000000000000077dda100716148ab1f4456b6fa596663b14cb0a80000000000000000000000000000000000000000000000000000000000000bd7"
        }
      ],
      "isFixedGasLimit": false
    }
  ],
  "receipts": [],
  "libraries": [],
  "pending": [
    "0x9d83de3035cde9c9dee9779f5b74e13d6b68b523d1e9fb949ec85079492be3ca"
  ],
  "returns": {},
  "timestamp": 1690052233,
  "chain": 5,
  "multi": false,
  "commit": "d6f6210"
}