{
  "transactions": [
    {
      "hash": "0xb2fb8b4cd21e478c33b39d942262763ed60bf8171a9d095935313ebbd95b2c3e",
      "transactionType": "CALL",
      "contractName": "ERC6551Registry",
      "contractAddress": "0x02101dfB77FDE026414827Fdc604ddAF224F0921",
      "function": "createAccount(address,uint256,address,uint256,uint256,bytes):(address)",
      "arguments": [
        "0x2D25602551487C3f3354dD80D76D54383A243358",
        "5",
        "0x87F0F82F0e0c794D52111093aD5D3b29979799b5",
        "3031",
        "0",
        "0x"
      ],
      "transaction": {
        "type": "0x02",
        "from": "0x0903961f9aef3cedc5ceec5cf15e761c0cb38807",
        "to": "0x02101dfb77fde026414827fdc604ddaf224f0921",
        "gas": "0x207d7",
        "value": "0x0",
        "data": "0xda7323b30000000000000000000000002d25602551487c3f3354dd80d76d54383a243358000000000000000000000000000000000000000000000000000000000000000500000000000000000000000087f0f82f0e0c794d52111093ad5d3b29979799b50000000000000000000000000000000000000000000000000000000000000bd7000000000000000000000000000000000000000000000000000000000000000000000000000000000000000000000000000000000000000000000000000000c00000000000000000000000000000000000000000000000000000000000000000",
        "nonce": "0x6",
        "accessList": []
      },
      "additionalContracts": [
        {
          "transactionType": "CREATE2",
          "address": "0x0A953E7D4A3Fcb9638587d847A9c667B002bAE5E",
          "initCode": "3d60ad80600a3d3981f3363d3d373d3d3d363d732d25602551487c3f3354dd80d76d54383a2433585af43d82803e903d91602b57fd5bf30000000000000000000000000000000000000000000000000000000000000000000000000000000000000000000000000000000000000000000000000000000500000000000000000000000087f0f82f0e0c794d52111093ad5d3b29979799b50000000000000000000000000000000000000000000000000000000000000bd7"
        }
      ],
      "isFixedGasLimit": false
    }
  ],
  "receipts": [],
  "libraries": [],
  "pending": [
    "0xb2fb8b4cd21e478c33b39d942262763ed60bf8171a9d095935313ebbd95b2c3e"
  ],
  "returns": {},
  "timestamp": 1690052546,
  "chain": 5,
  "multi": false,
  "commit": "d6f6210"
}