{
  "transactions": [
    {
      "hash": "0x9356f1babb0ccedeb458f2b1b934fb321d631f4e4ca6e4d8e4cad0b37bedc6d8",
      "transactionType": "CALL",
      "contractName": "ERC6551Registry",
      "contractAddress": "0x02101dfB77FDE026414827Fdc604ddAF224F0921",
      "function": "createAccount(address,uint256,address,uint256,uint256,bytes):(address)",
      "arguments": [
        "0x2D25602551487C3f3354dD80D76D54383A243358",
        "5",
        "0x7c1DC50D061b87D4E94Cb09999729E0b57E1Ce34",
        "3031",
        "0",
        "0x"
      ],
      "transaction": {
        "type": "0x02",
        "from": "0x0903961f9aef3cedc5ceec5cf15e761c0cb38807",
        "to": "0x02101dfb77fde026414827fdc604ddaf224f0921",
        "gas": "0x207d7",
        "value": "0x0",
        "data": "0xda7323b30000000000000000000000002d25602551487c3f3354dd80d76d54383a24335800000000000000000000000000000000000000000000000000000000000000050000000000000000000000007c1dc50d061b87d4e94cb09999729e0b57e1ce340000000000000000000000000000000000000000000000000000000000000bd7000000000000000000000000000000000000000000000000000000000000000000000000000000000000000000000000000000000000000000000000000000c00000000000000000000000000000000000000000000000000000000000000000",
        "nonce": "0xb",
        "accessList": []
      },
      "additionalContracts": [
        {
          "transactionType": "CREATE2",
          "address": "0xE255e2404f50a2878C6587271698e81fd30e9D13",
          "initCode": "3d60ad80600a3d3981f3363d3d373d3d3d363d732d25602551487c3f3354dd80d76d54383a2433585af43d82803e903d91602b57fd5bf3000000000000000000000000000000000000000000000000000000000000000000000000000000000000000000000000000000000000000000000000000000050000000000000000000000007c1dc50d061b87d4e94cb09999729e0b57e1ce340000000000000000000000000000000000000000000000000000000000000bd7"
        }
      ],
      "isFixedGasLimit": false
    }
  ],
  "receipts": [
    {
      "transactionHash": "0x9356f1babb0ccedeb458f2b1b934fb321d631f4e4ca6e4d8e4cad0b37bedc6d8",
      "transactionIndex": "0xf",
      "blockHash": "0x84799dc27dd08f9d69673ff9650a0cda3326b8b8a884e333e4e7a2e1763d2e35",
      "blockNumber": "0x8f4773",
      "from": "0x0903961F9AeF3ceDC5CeeC5CF15E761C0cB38807",
      "to": "0x02101dfB77FDE026414827Fdc604ddAF224F0921",
      "cumulativeGasUsed": "0x16f422",
      "gasUsed": "0x17868",
      "contractAddress": null,
      "logs": [
        {
          "address": "0x02101dfB77FDE026414827Fdc604ddAF224F0921",
          "topics": [
            "0x07fba7bba1191da7ee1155dcfa0030701c9c9a9cc34a93b991fc6fd0c9268d8f"
          ],
          "data": "0x000000000000000000000000e255e2404f50a2878c6587271698e81fd30e9d130000000000000000000000002d25602551487c3f3354dd80d76d54383a24335800000000000000000000000000000000000000000000000000000000000000050000000000000000000000007c1dc50d061b87d4e94cb09999729e0b57e1ce340000000000000000000000000000000000000000000000000000000000000bd70000000000000000000000000000000000000000000000000000000000000000",
          "blockHash": "0x84799dc27dd08f9d69673ff9650a0cda3326b8b8a884e333e4e7a2e1763d2e35",
          "blockNumber": "0x8f4773",
          "transactionHash": "0x9356f1babb0ccedeb458f2b1b934fb321d631f4e4ca6e4d8e4cad0b37bedc6d8",
          "transactionIndex": "0xf",
          "logIndex": "0x15",
          "removed": false
        }
      ],
      "status": "0x1",
      "logsBloom": "0x00000000000000000000000000000000000000000000000000000000000000000000000000000000000000000000000000000000000000000000000000000002000000000000000000000000000000000000000000000000000000000000800000000000000000000000000000000000000000000000000000000000000000000000000000000000000000000200000000000000000000000000000000000000000000000000000000000000000000000000000000000000000000000000000000000000000000000000000000000000000000000000000000080000000000000000001000000000000000000000000000000000000000000000002000000000",
      "type": "0x2",
      "effectiveGasPrice": "0xbc4055ba"
    }
  ],
  "libraries": [],
  "pending": [],
  "returns": {},
  "timestamp": 1690053547,
  "chain": 5,
  "multi": false,
  "commit": "d6f6210"
}