{
  "transactions": [
    {
      "hash": "0xb2fb8b4cd21e478c33b39d942262763ed60bf8171a9d095935313ebbd95b2c3e",
      "transactionType": "CALL",
      "contractName": "ERC6551Registry",
      "contractAddress": "0x02101dfB77FDE026414827Fdc604ddAF224F0921",
      "function": "createAccount(address,uint256,address,uint256,uint256,bytes):(address)",
      "arguments": [
        "0x2D25602551487C3f3354dD80D76D54383A243358",
        "5",
        "0x87F0F82F0e0c794D52111093aD5D3b29979799b5",
        "3031",
        "0",
        "0x"
      ],
      "transaction": {
        "type": "0x02",
        "from": "0x0903961f9aef3cedc5ceec5cf15e761c0cb38807",
        "to": "0x02101dfb77fde026414827fdc604ddaf224f0921",
        "gas": "0x207d7",
        "value": "0x0",
        "data": "0xda7323b30000000000000000000000002d25602551487c3f3354dd80d76d54383a243358000000000000000000000000000000000000000000000000000000000000000500000000000000000000000087f0f82f0e0c794d52111093ad5d3b29979799b50000000000000000000000000000000000000000000000000000000000000bd7000000000000000000000000000000000000000000000000000000000000000000000000000000000000000000000000000000000000000000000000000000c00000000000000000000000000000000000000000000000000000000000000000",
        "nonce": "0x6",
        "accessList": []
      },
      "additionalContracts": [
        {
          "transactionType": "CREATE2",
          "address": "0x0A953E7D4A3Fcb9638587d847A9c667B002bAE5E",
          "initCode": "3d60ad80600a3d3981f3363d3d373d3d3d363d732d25602551487c3f3354dd80d76d54383a2433585af43d82803e903d91602b57fd5bf30000000000000000000000000000000000000000000000000000000000000000000000000000000000000000000000000000000000000000000000000000000500000000000000000000000087f0f82f0e0c794d52111093ad5d3b29979799b50000000000000000000000000000000000000000000000000000000000000bd7"
        }
      ],
      "isFixedGasLimit": false
    }
  ],
  "receipts": [
    {
      "transactionHash": "0xb2fb8b4cd21e478c33b39d942262763ed60bf8171a9d095935313ebbd95b2c3e",
      "transactionIndex": "0x6",
      "blockHash": "0xa348fb19b780a6c5c466302c4e82e9a3094d784cd2d8d1b04b9979c317abe80a",
      "blockNumber": "0x8f4738",
      "from": "0x0903961F9AeF3ceDC5CeeC5CF15E761C0cB38807",
      "to": "0x02101dfB77FDE026414827Fdc604ddAF224F0921",
      "cumulativeGasUsed": "0x121255",
      "gasUsed": "0x17868",
      "contractAddress": null,
      "logs": [
        {
          "address": "0x02101dfB77FDE026414827Fdc604ddAF224F0921",
          "topics": [
            "0x07fba7bba1191da7ee1155dcfa0030701c9c9a9cc34a93b991fc6fd0c9268d8f"
          ],
          "data": "0x0000000000000000000000000a953e7d4a3fcb9638587d847a9c667b002bae5e0000000000000000000000002d25602551487c3f3354dd80d76d54383a243358000000000000000000000000000000000000000000000000000000000000000500000000000000000000000087f0f82f0e0c794d52111093ad5d3b29979799b50000000000000000000000000000000000000000000000000000000000000bd70000000000000000000000000000000000000000000000000000000000000000",
          "blockHash": "0xa348fb19b780a6c5c466302c4e82e9a3094d784cd2d8d1b04b9979c317abe80a",
          "blockNumber": "0x8f4738",
          "transactionHash": "0xb2fb8b4cd21e478c33b39d942262763ed60bf8171a9d095935313ebbd95b2c3e",
          "transactionIndex": "0x6",
          "logIndex": "0xb",
          "removed": false
        }
      ],
      "status": "0x1",
      "logsBloom": "0x00000000000000000000000000000000000000000000000000000000000000000000000000000000000000000000000000000000000000000000000000000002000000000000000000000000000000000000000000000000000000000000800000000000000000000000000000000000000000000000000000000000000000000000000000000000000000000200000000000000000000000000000000000000000000000000000000000000000000000000000000000000000000000000000000000000000000000000000000000000000000000000000000080000000000000000001000000000000000000000000000000000000000000000002000000000",
      "type": "0x2",
      "effectiveGasPrice": "0x11232bdae"
    }
  ],
  "libraries": [],
  "pending": [],
  "returns": {},
  "timestamp": 1690052559,
  "chain": 5,
  "multi": false,
  "commit": "d6f6210"
}