{
  "transactions": [
    {
      "hash": "0xd92181dec45f718dd8741fb6f8c700f4d7276e998b385790d8259cdfabb195b6",
      "transactionType": "CALL",
      "contractName": "ERC6551Registry",
      "contractAddress": "0x02101dfB77FDE026414827Fdc604ddAF224F0921",
      "function": "createAccount(address,uint256,address,uint256,uint256,bytes):(address)",
      "arguments": [
        "0x2D25602551487C3f3354dD80D76D54383A243358",
        "5",
        "0x0000000000000000000000000000000000000000",
        "3031",
        "0",
        "0x"
      ],
      "transaction": {
        "type": "0x02",
        "from": "0x0903961f9aef3cedc5ceec5cf15e761c0cb38807",
        "to": "0x02101dfb77fde026414827fdc604ddaf224f0921",
        "gas": "0x2068c",
        "value": "0x0",
        "data": "0xda7323b30000000000000000000000002d25602551487c3f3354dd80d76d54383a243358000000000000000000000000000000000000000000000000000000000000000500000000000000000000000000000000000000000000000000000000000000000000000000000000000000000000000000000000000000000000000000000bd7000000000000000000000000000000000000000000000000000000000000000000000000000000000000000000000000000000000000000000000000000000c00000000000000000000000000000000000000000000000000000000000000000",
        "nonce": "0x2",
        "accessList": []
      },
      "additionalContracts": [
        {
          "transactionType": "CREATE2",
          "address": "0xBF47374BcC926fe51988268c3B3cF861265fA2Fb",
          "initCode": "3d60ad80600a3d3981f3363d3d373d3d3d363d732d25602551487c3f3354dd80d76d54383a2433585af43d82803e903d91602b57fd5bf30000000000000000000000000000000000000000000000000000000000000000000000000000000000000000000000000000000000000000000000000000000500000000000000000000000000000000000000000000000000000000000000000000000000000000000000000000000000000000000000000000000000000bd7"
        }
      ],
      "isFixedGasLimit": false
    }
  ],
  "receipts": [
    {
      "transactionHash": "0xd92181dec45f718dd8741fb6f8c700f4d7276e998b385790d8259cdfabb195b6",
      "transactionIndex": "0x9",
      "blockHash": "0xab42e10db48319fa3da5a4ff3f7dc435a0ee6f068d77a3387fb0e4d73d001c35",
      "blockNumber": "0x8f4711",
      "from": "0x0903961F9AeF3ceDC5CeeC5CF15E761C0cB38807",
      "to": "0x02101dfB77FDE026414827Fdc604ddAF224F0921",
      "cumulativeGasUsed": "0xd52c4",
      "gasUsed": "0x17778",
      "contractAddress": null,
      "logs": [
        {
          "address": "0x02101dfB77FDE026414827Fdc604ddAF224F0921",
          "topics": [
            "0x07fba7bba1191da7ee1155dcfa0030701c9c9a9cc34a93b991fc6fd0c9268d8f"
          ],
          "data": "0x000000000000000000000000bf47374bcc926fe51988268c3b3cf861265fa2fb0000000000000000000000002d25602551487c3f3354dd80d76d54383a243358000000000000000000000000000000000000000000000000000000000000000500000000000000000000000000000000000000000000000000000000000000000000000000000000000000000000000000000000000000000000000000000bd70000000000000000000000000000000000000000000000000000000000000000",
          "blockHash": "0xab42e10db48319fa3da5a4ff3f7dc435a0ee6f068d77a3387fb0e4d73d001c35",
          "blockNumber": "0x8f4711",
          "transactionHash": "0xd92181dec45f718dd8741fb6f8c700f4d7276e998b385790d8259cdfabb195b6",
          "transactionIndex": "0x9",
          "logIndex": "0x11",
          "removed": false
        }
      ],
      "status": "0x1",
      "logsBloom": "0x00000000000000000000000000000000000000000000000000000000000000000000000000000000000000000000000000000000000000000000000000000002000000000000000000000000000000000000000000000000000000000000800000000000000000000000000000000000000000000000000000000000000000000000000000000000000000000200000000000000000000000000000000000000000000000000000000000000000000000000000000000000000000000000000000000000000000000000000000000000000000000000000000080000000000000000001000000000000000000000000000000000000000000000002000000000",
      "type": "0x2",
      "effectiveGasPrice": "0xc71b77e6"
    }
  ],
  "libraries": [],
  "pending": [],
  "returns": {},
  "timestamp": 1690052018,
  "chain": 5,
  "multi": false,
  "commit": "d6f6210"
}