{
  "transactions": [
    {
      "hash": "0x9d83de3035cde9c9dee9779f5b74e13d6b68b523d1e9fb949ec85079492be3ca",
      "transactionType": "CALL",
      "contractName": "ERC6551Registry",
      "contractAddress": "0x02101dfB77FDE026414827Fdc604ddAF224F0921",
      "function": "createAccount(address,uint256,address,uint256,uint256,bytes):(address)",
      "arguments": [
        "0x2D25602551487C3f3354dD80D76D54383A243358",
        "5",
        "0x77Dda100716148ab1F4456b6fa596663B14cb0A8",
        "3031",
        "0",
        "0x"
      ],
      "transaction": {
        "type": "0x02",
        "from": "0x0903961f9aef3cedc5ceec5cf15e761c0cb38807",
        "to": "0x02101dfb77fde026414827fdc604ddaf224f0921",
        "gas": "0x207c8",
        "value": "0x0",
        "data": "0xda7323b30000000000000000000000002d25602551487c3f3354dd80d76d54383a243358000000000000000000000000000000000000000000000000000000000000000500000000000000000000000077dda100716148ab1f4456b6fa596663b14cb0a80000000000000000000000000000000000000000000000000000000000000bd7000000000000000000000000000000000000000000000000000000000000000000000000000000000000000000000000000000000000000000000000000000c00000000000000000000000000000000000000000000000000000000000000000",
        "nonce": "0x4",
        "accessList": []
      },
      "additionalContracts": [
        {
          "transactionType": "CREATE2",
          "address": "0x4F4c55051d78a3BB1127dA6455a163d9586f2A88",
          "initCode": "3d60ad80600a3d3981f3363d3d373d3d3d363d732d25602551487c3f3354dd80d76d54383a2433585af43d82803e903d91602b57fd5bf30000000000000000000000000000000000000000000000000000000000000000000000000000000000000000000000000000000000000000000000000000000500000000000000000000000077dda100716148ab1f4456b6fa596663b14cb0a80000000000000000000000000000000000000000000000000000000000000bd7"
        }
      ],
      "isFixedGasLimit": false
    }
  ],
  "receipts": [
    {
      "transactionHash": "0x9d83de3035cde9c9dee9779f5b74e13d6b68b523d1e9fb949ec85079492be3ca",
      "transactionIndex": "0x2",
      "blockHash": "0x658cc56f3d7e31e4a3c9a9ef6c31a0453ee1beb649accde6958cc2ce92964aed",
      "blockNumber": "0x8f4721",
      "from": "0x0903961F9AeF3ceDC5CeeC5CF15E761C0cB38807",
      "to": "0x02101dfB77FDE026414827Fdc604ddAF224F0921",
      "cumulativeGasUsed": "0x42001",
      "gasUsed": "0x1785c",
      "contractAddress": null,
      "logs": [
        {
          "address": "0x02101dfB77FDE026414827Fdc604ddAF224F0921",
          "topics": [
            "0x07fba7bba1191da7ee1155dcfa0030701c9c9a9cc34a93b991fc6fd0c9268d8f"
          ],
          "data": "0x0000000000000000000000004f4c55051d78a3bb1127da6455a163d9586f2a880000000000000000000000002d25602551487c3f3354dd80d76d54383a243358000000000000000000000000000000000000000000000000000000000000000500000000000000000000000077dda100716148ab1f4456b6fa596663b14cb0a80000000000000000000000000000000000000000000000000000000000000bd70000000000000000000000000000000000000000000000000000000000000000",
          "blockHash": "0x658cc56f3d7e31e4a3c9a9ef6c31a0453ee1beb649accde6958cc2ce92964aed",
          "blockNumber": "0x8f4721",
          "transactionHash": "0x9d83de3035cde9c9dee9779f5b74e13d6b68b523d1e9fb949ec85079492be3ca",
          "transactionIndex": "0x2",
          "logIndex": "0x6",
          "removed": false
        }
      ],
      "status": "0x1",
      "logsBloom": "0x00000000000000000000000000000000000000000000000000000000000000000000000000000000000000000000000000000000000000000000000000000002000000000000000000000000000000000000000000000000000000000000800000000000000000000000000000000000000000000000000000000000000000000000000000000000000000000200000000000000000000000000000000000000000000000000000000000000000000000000000000000000000000000000000000000000000000000000000000000000000000000000000000080000000000000000001000000000000000000000000000000000000000000000002000000000",
      "type": "0x2",
      "effectiveGasPrice": "0x11356f81a"
    }
  ],
  "libraries": [],
  "pending": [],
  "returns": {},
  "timestamp": 1690052246,
  "chain": 5,
  "multi": false,
  "commit": "d6f6210"
}